:08000000803102288731F02F46
:100CDE000134FF34203021009700080024009401D5
:100CEE002030950092010800320099019B019D0170
:100CFE0006309F009E010800F00024009513700836
:100D0E009100141C8B2E8C2E882E11080800863113
:100D1E00DE26863186317B268631863171268631F6
:100D2E008631752686310800F4007408E038863165
:100D3E008326863171088631832686317208863184
:100D4E008326863173088631832686310800F201A8
:100D5E00F301FF308631832686310130F2070030F1
:100D6E00F33D7308803AF10080307102031DC12EED
:100D7E0004307202031CC42EC52EB02E0800F201E0
:100D8E00F30100308631832686310130F2070030C0
:100D9E00F33D7308803AF10080307102031DD92EA5
:100DAE0004307202031CDC2EDD2EC82E0800220039
:100DBE008C018D018E01373021008C00A0308D000A
:100DCE00FF308E00FF3023008E00A0308D003630B5
:100DDE008C0024008D018C018E0125008C018D016B
:100DEE008E0100308B1B0130F0008B1355303C0010
:100DFE008F00AA308F000F10E030A1052008E039D7
:100E0E000E38A0003D001C08E03919389C001E0861
:100E1E00E03918389E0055303C008F00AA308F0004
:100E2E000F14700C031C8B1303188B1708008631DC
:100E3E008E2687313A2F3B3079020318272F282F21
:100E4E002D2F0130F5007508F9079A2FA001A00A81
:100E5E009A2F79080319342F352F382F0130F902C4
:100E6E009A2FA0019A2F20002008F500F60176088F
:100E7E00003A0319432F9A2F7508003A0319222FAF
:100E8E00013A0319302F9A2F7B0A03194F2F502F37
:100E9E00552F0130F5007508FB07B62FFA01FA0A37
:100EAE00B62F7D0803195C2F5D2F602F0130FD02D8
:100EBE00B62F0230F5007508FA00B62F7C0A03191A
:100ECE00692F6A2F6F2F0130F5007508FC07B62FBA
:100EDE000330F5007508FA00B62F7B080319782F3A
:100EEE00792F7C2F0130FB02B62F0430F5007508E8
:100EFE00FA00B62F7D0A0319852F862F8B2F01300E
:100F0E00F5007508FD07B62F0530F5007508FA00D7
:100F1E00B62F7C080319942F952F982F0130FC02C1
:100F2E00B62FFA01B62F7A08F500F6017608003AC8
:100F3E000319A22FB62F7508003A03194B2F013A49
:100F4E000319582F033A0319652F013A0319742F09
:100F5E00073A0319812F013A0319902FB62F8631C4
:100F6E00C6268731F80178087906031DBF2FC02FDA
:100F7E00D12F7C08F5007508F1007B08F600760885
:100F8E00F2007D08F7007708F3001F3086319B26AC
:100F9E008731D82FF101F201F301003086319B2603
:100FAE0087310130F5007508F8073C307802031CD4
:100FBE00E12FE22FBA2F8631AE2687316830F50049
:100FCE00E430890BE82FF50BE82F00323A2F8031F1
:100FDE000228863170268731FD0086316F268731D3
:100FEE00A100F901FA01FB01FC01A00120008731EB
:060FFE001E2F3C340034FC
:020000040001F9
:08000000FF3FFF3FFF3FFF3F00
:08000E008C3FF33FFF3FFF3F71
:00000001FF
